:10034B000A1AC0F9A4B0999282F880900224B6BF21
:04035B000226000076
:1002AA00AB07AA06C2A27C007D0A120160741A2D4D
:1002BA00F8E6F580D2A2C2A3AE02AF037C007D0AA3
:0D02CA00120160741A2FF8E6F580D2A3220D
:10030000C2A074242FF8E6F580D2A0C2A1F580D255
:0E031000A1C2A2F580D2A2C2A3F580D2A32280
:04026C008E188F1940
:10027000E4FDFCC3ED9519E5186480F8EC64809802
:100280005027E4FBFA900000E4FFFE120300A3E510
:1002900082640A458370F10BBB00010AEB640A4AD1
:0902A00070E30DBD00010C80CAE1
:0102A9002232
:10033600D290D291C292D293D294C2957F017E007E
:0503460012030080F726
:1002D700D290D292D293D295D291D2947F647E005B
:1002E70012026CC291C2947F647E0012026C20A538
:0902F700E730A5FD12033680DF9B
:1003600020A40630A4FD1202D720A50630A5FD1258
:030370000336222F
:10031E00E4FFFE20A60730A6FD7E007F0120A70782
:07032E0030A7FD74FFFEFF84
:0103350022A5
:0C01EB00D291D294AD0DAC0C7F327E009E
:0801F7008E0E8F0F8C108D118C
:1001FF00E4F512F513C3E513950FE50E6480F8E5EA
:10020F00126480985056E4F514F515E4F516F517B9
:10021F00AF11AE101202AA12036012031EEF2511C6
:10022F00F511EE3510F510F5268511270517E51791
:10023F0070020516C39407E5166480948040D105BB
:10024F0015E51570020514C3940AE51464809480B3
:0C025F0040B90513E513709D051280994D
:01026B002270
:08000300D2A0D2A1D2A2D2A327
:10000B0075080075091E750A00750B1EC290D291FA
:10001B00D292D293D294C295AD09AC087F647E0084
:10002B001201F7852608852709E5091509700215C0
:10003B0008D3E5099400E5086480948050DAD290E7
:10004B00D295750C00750D031201EBC291C294127F
:10005B0001EFE50D150D7002150CD3E50D9400E5C0
:10006B000C6480948050E1D290D291C292C293D210
:10007B0094D295D3E50B9400E50A64809480401BE1
:10008B00AD0BAC0A7F647E001201F785260A85272B
:10009B000BE50B150B70DC150A80D8D292D2937539
:1000AB000C00750D03D3E50D9400E50C6480948072
:1000BB00500302000B1201EBC291C2941201EFE547
:0900CB000D150D70E0150C80DC30
:030000000200D427
:0C00D400787FE4F6D8FD75812702011B3F
:10016000C2D5EC30E709B2D5E4C39DFDE49CFCEEBA
:1001700030E715B2D5E4C39FFFE49EFE120196C39B
:10018000E49DFDE49CFC800312019630D507C3E496
:060190009FFFE49EFE2229
:1000E000020003E493A3F8E493A34003F68001F233
:1000F00008DFF48029E493A3F85407240CC8C33321
:10010000C4540F4420C8834004F456800146F6DFEF
:10011000E4800B010204081020408090034BE47E31
:10012000019360BCA3FF543F30E509541FFEE493E4
:10013000A360010ECF54C025E060A840B8E493A3AB
:10014000FAE493A3F8E493A3C8C582C8CAC583CAD6
:10015000F0A3C8C582C8CAC583CADFE9DEE780BE8E
:01035F00009D
:10019600BC000BBE0029EF8DF084FFADF022E4CC4D
:1001A600F875F008EF2FFFEE33FEEC33FCEE9DEC16
:1001B600984005FCEE9DFE0FD5F0E9E4CEFD22ED5C
:1001C600F8F5F0EE8420D21CFEADF075F008EF2FA6
:1001D600FFED33FD4007985006D5F0F222C398FD97
:0501E6000FD5F0EA2234
:00000001FF
