:1003BF000A1AC0F9A4B0999282F880900324B69CCF
:0503CF00A3022700005D
:0702FA00852580AF19AE1845
:10030100E4FDFCC3ED9FEE6480F8EC64809850211D
:10031100E4FBFA900000A3E582640A458370F70BC1
:10032100BB00010AEB640A4A70E90DBD00010C80B3
:01033100D2F9
:0103320022A8
:10033300AB07AA06C2A27C007D0A12015C741A2DC7
:10034300F8E6F580D2A2C2A3AE02AF037C007D0A19
:0D03530012015C741A2FF8E6F580D2A32287
:10038900C2A074242FF8E6F580D2A0C2A1F580D2CC
:0E039900A1C2A2F580D2A2C2A3F580D2A322F7
:0402BC008E188F19F0
:1002C000E4FDFCC3ED9519E5186480F8EC648098B2
:1002D0005027E4FBFA900000E4FFFE120389A3E537
:1002E00082640A458370F10BBB00010AEB640A4A81
:0902F00070E30DBD00010C80CA91
:0102F90022E2
:0C026400D290D291C292D293D294C29553
:1002700075180075195AC2A01202FAD2A0C2A112B2
:1002800002FAD2A1C2A21202FAD2A2C2A31202FAA6
:10029000D2A3C2A38526801202FDD2A3C2A28526C4
:1002A000801202FDD2A2C2A18526801202FDD2A137
:0A02B000C2A08526801202FDD2A034
:0202BA0080B40E
:10036000D290D292D293D295D291D2947F647E00D1
:100370001202BCC291C2947F647E001202BC20A50E
:09038000E730A5FD12026480DFE4
:1003D50020A40630A4FD12036020A50630A5FD1259
:0303E5000264228D
:1003A700E4FFFE20A60730A6FD7E007F0120A707F9
:0703B70030A7FD74FFFEFFFB
:0103BE00221C
:0801E700AD0DAC0C7F327E006F
:0801EF008E0E8F0F8C108D1194
:1001F700E4F512F513C3E513950FE50E6480F8E5F2
:10020700126480985056E4F514F515E4F516F517C1
:10021700AF11AE101203331203D51203A7EF251146
:10022700F511EE3510F510F5278511280517E51797
:1002370070020516C39411E5166480948040D105B9
:1002470015E51570020514C39404E51464809480C1
:0C02570040B90513E513709D0512809955
:010263002278
:08000300D2A0D2A1D2A2D2A327
:10000B0075080075091E750A00750B1EC290D291FA
:10001B00D292D293D294C295AD09AC087F647E0084
:10002B001201EF852708852809E5091509700215C6
:10003B0008D3E5099400E5086480948050DAD290E7
:10004B00750C00750D03D2911201E7C2911201E7F5
:10005B00E50D150D7002150CD3E50D9400E50C6440
:10006B0080948050E1D290D291C292C293D294D21A
:10007B0095D3E50B9400E50A64809480401BAD0B8F
:10008B00AC0A7F647E001201EF85270A85280BE5F9
:10009B000B150B70DC150A80D8D293750C00750DFF
:1000AB0003D3E50D9400E50C6480948050030200AB
:1000BB000BD2941201E7C2941201E7E50D150D70F6
:0500CB00E0150C80DCD3
:030000000200D02B
:0C00D000787FE4F6D8FD75812802011746
:10015C00C2D5EC30E709B2D5E4C39DFDE49CFCEEBE
:10016C0030E715B2D5E4C39FFFE49EFE120192C3A3
:10017C00E49DFDE49CFC800312019230D507C3E49E
:06018C009FFFE49EFE222D
:1000DC00020003E493A3F8E493A34003F68001F237
:1000EC0008DFF48029E493A3F85407240CC8C33325
:1000FC00C4540F4420C8834004F456800146F6DFF4
:10010C00E4800B01020408102040809003BFE47EC1
:10011C00019360BCA3FF543F30E509541FFEE493E8
:10012C00A360010ECF54C025E060A840B8E493A3AF
:10013C00FAE493A3F8E493A3C8C582C8CAC583CADA
:10014C00F0A3C8C582C8CAC583CADFE9DEE780BE92
:0103D4000028
:10019200BC000BBE0029EF8DF084FFADF022E4CC51
:1001A200F875F008EF2FFFEE33FEEC33FCEE9DEC1A
:1001B200984005FCEE9DFE0FD5F0E9E4CEFD22ED60
:1001C200F8F5F0EE8420D21CFEADF075F008EF2FAA
:1001D200FFED33FD4007985006D5F0F222C398FD9B
:0501E2000FD5F0EA2238
:00000001FF
